{
  "contractName": "PrismSale",
  "abi": [
    {
      "inputs": [],
      "stateMutability": "nonpayable",
      "type": "constructor"
    },
    {
      "inputs": [],
      "name": "charity",
      "outputs": [
        {
          "internalType": "address",
          "name": "",
          "type": "address"
        }
      ],
      "stateMutability": "view",
      "type": "function",
      "constant": true
    },
    {
      "inputs": [],
      "name": "maxSales",
      "outputs": [
        {
          "internalType": "uint256",
          "name": "",
          "type": "uint256"
        }
      ],
      "stateMutability": "view",
      "type": "function",
      "constant": true
    },
    {
      "inputs": [],
      "name": "owner",
      "outputs": [
        {
          "internalType": "address",
          "name": "",
          "type": "address"
        }
      ],
      "stateMutability": "view",
      "type": "function",
      "constant": true
    },
    {
      "inputs": [],
      "name": "totalSales",
      "outputs": [
        {
          "internalType": "uint256",
          "name": "",
          "type": "uint256"
        }
      ],
      "stateMutability": "view",
      "type": "function",
      "constant": true
    },
    {
      "inputs": [],
      "name": "canBuy",
      "outputs": [
        {
          "internalType": "bool",
          "name": "",
          "type": "bool"
        }
      ],
      "stateMutability": "view",
      "type": "function",
      "constant": true
    },
    {
      "inputs": [],
      "name": "hasAccess",
      "outputs": [
        {
          "internalType": "bool",
          "name": "",
          "type": "bool"
        }
      ],
      "stateMutability": "view",
      "type": "function",
      "constant": true
    },
    {
      "inputs": [],
      "name": "buy",
      "outputs": [
        {
          "internalType": "bool",
          "name": "",
          "type": "bool"
        }
      ],
      "stateMutability": "payable",
      "type": "function",
      "payable": true
    }
  ],
  "bytecode": "0x608060405234801561001057600080fd5b506000808190555060646000819055507359840c39cb047f3d56d920c6455537f84e2da84e600260006101000a81548173ffffffffffffffffffffffffffffffffffffffff021916908373ffffffffffffffffffffffffffffffffffffffff160217905550731d57d14b1c8c80fe553f65ecdaa1581918972ccb600360006101000a81548173ffffffffffffffffffffffffffffffffffffffff021916908373ffffffffffffffffffffffffffffffffffffffff16021790555061083c806100d96000396000f3fe6080604052600436106100705760003560e01c8063934aa0231161004e578063934aa023146100f6578063a6f2ae3a14610121578063bfdf9b6e1461013f578063ff65226c1461016a57610070565b80636605ff661461007557806385a2dd15146100a05780638da5cb5b146100cb575b600080fd5b34801561008157600080fd5b5061008a610195565b60405161009791906104c5565b60405180910390f35b3480156100ac57600080fd5b506100b561019b565b6040516100c291906104fb565b60405180910390f35b3480156100d757600080fd5b506100e06101ef565b6040516100ed9190610557565b60405180910390f35b34801561010257600080fd5b5061010b610215565b6040516101189190610557565b60405180910390f35b61012961023b565b60405161013691906104fb565b60405180910390f35b34801561014b57600080fd5b50610154610498565b60405161016191906104c5565b60405180910390f35b34801561017657600080fd5b5061017f61049e565b60405161018c91906104fb565b60405180910390f35b60005481565b6000600460003373ffffffffffffffffffffffffffffffffffffffff1673ffffffffffffffffffffffffffffffffffffffff16815260200190815260200160002060009054906101000a900460ff16905090565b600260009054906101000a900473ffffffffffffffffffffffffffffffffffffffff1681565b600360009054906101000a900473ffffffffffffffffffffffffffffffffffffffff1681565b60006001151561024961049e565b15151461028b576040517f08c379a0000000000000000000000000000000000000000000000000000000008152600401610282906105cf565b60405180910390fd5b662386f26fc1000034146102d4576040517f08c379a00000000000000000000000000000000000000000000000000000000081526004016102cb9061063b565b60405180910390fd5b600015156102e061019b565b151514610322576040517f08c379a0000000000000000000000000000000000000000000000000000000008152600401610319906106a7565b60405180910390fd5b600260009054906101000a900473ffffffffffffffffffffffffffffffffffffffff1673ffffffffffffffffffffffffffffffffffffffff166108fc606460503461036d91906106f6565b610377919061077f565b9081150290604051600060405180830381858888f193505050501580156103a2573d6000803e3d6000fd5b50600360009054906101000a900473ffffffffffffffffffffffffffffffffffffffff1673ffffffffffffffffffffffffffffffffffffffff166108fc60646014346103ee91906106f6565b6103f8919061077f565b9081150290604051600060405180830381858888f19350505050158015610423573d6000803e3d6000fd5b50600160005461043391906107b0565b6000819055506001600460003373ffffffffffffffffffffffffffffffffffffffff1673ffffffffffffffffffffffffffffffffffffffff16815260200190815260200160002060006101000a81548160ff0219169083151502179055506001905090565b60015481565b600060015460005410905090565b6000819050919050565b6104bf816104ac565b82525050565b60006020820190506104da60008301846104b6565b92915050565b60008115159050919050565b6104f5816104e0565b82525050565b600060208201905061051060008301846104ec565b92915050565b600073ffffffffffffffffffffffffffffffffffffffff82169050919050565b600061054182610516565b9050919050565b61055181610536565b82525050565b600060208201905061056c6000830184610548565b92915050565b600082825260208201905092915050565b7f596f752063616e27742062757920746869730000000000000000000000000000600082015250565b60006105b9601283610572565b91506105c482610583565b602082019050919050565b600060208201905081810360008301526105e8816105ac565b9050919050565b7f796f75206469646e27742073656e642074686520726967687420616d6f756e74600082015250565b6000610625602083610572565b9150610630826105ef565b602082019050919050565b6000602082019050818103600083015261065481610618565b9050919050565b7f416c726561647920626f75676874000000000000000000000000000000000000600082015250565b6000610691600e83610572565b915061069c8261065b565b602082019050919050565b600060208201905081810360008301526106c081610684565b9050919050565b7f4e487b7100000000000000000000000000000000000000000000000000000000600052601160045260246000fd5b6000610701826104ac565b915061070c836104ac565b9250817fffffffffffffffffffffffffffffffffffffffffffffffffffffffffffffffff0483118215151615610745576107446106c7565b5b828202905092915050565b7f4e487b7100000000000000000000000000000000000000000000000000000000600052601260045260246000fd5b600061078a826104ac565b9150610795836104ac565b9250826107a5576107a4610750565b5b828204905092915050565b60006107bb826104ac565b91506107c6836104ac565b9250827fffffffffffffffffffffffffffffffffffffffffffffffffffffffffffffffff038211156107fb576107fa6106c7565b5b82820190509291505056fea264697066735822122031c81c2389b84cc50cb00f94bc44437f0c0f26ab47d5da9f1c00e6623447b10164736f6c63430008080033",
  "immutableReferences": {},
  "source": "// SPDX-License-Identifier: MIT\npragma solidity >=0.4.22 <0.9.0;\n\ncontract PrismSale {\n  uint public totalSales;\n  uint public maxSales;\n  address public owner;\n  address public charity;\n\n  mapping (address => bool) sales;\n\n  constructor() {\n    totalSales = 0;\n    totalSales = 100;\n    owner = 0x59840C39CB047F3d56D920C6455537f84E2DA84E;\n    charity = 0x1d57d14b1C8C80fe553F65EcdAA1581918972CCB;\n  }\n\n  function canBuy () public view returns (bool){\n    return totalSales < maxSales;\n\n  }\n\n  function hasAccess () public view returns (bool){\n    return sales[msg.sender];\n  }\n\n\n  function buy () public payable returns (bool) {\n    require(canBuy() == true, \"You can't buy this\");\n    require(msg.value == 0.01 ether, \"you didn't send the right amount\");\n    require(hasAccess() == false, \"Already bought\");\n\n    payable(owner).transfer(msg.value * 80/100);\n    payable(charity).transfer(msg.value * 20/100);\n    totalSales = totalSales + 1;\n\n    sales[msg.sender] = true;\n\n    return true;\n  }\n}\n",
  "sourcePath": "/Users/helenemartin/Sites/prism/contracts/PrismSale.sol",
  "compiler": {
    "name": "solc",
    "version": "0.8.8+commit.dddeac2f.Emscripten.clang"
  },
  "schemaVersion": "3.4.3",
  "updatedAt": "2021-10-11T11:06:24.212Z",
  "networkType": "ethereum",
  "devdoc": {
    "kind": "dev",
    "methods": {},
    "version": 1
  },
  "userdoc": {
    "kind": "user",
    "methods": {},
    "version": 1
  }
}